{
  "contractName": "ExampleTokenCrowdsale",
  "abi": [
    {
      "constant": true,
      "inputs": [],
      "name": "rate",
      "outputs": [
        {
          "name": "",
          "type": "uint256"
        }
      ],
      "payable": false,
      "stateMutability": "view",
      "type": "function",
      "signature": "0x2c4e722e"
    },
    {
      "constant": true,
      "inputs": [],
      "name": "cap",
      "outputs": [
        {
          "name": "",
          "type": "uint256"
        }
      ],
      "payable": false,
      "stateMutability": "view",
      "type": "function",
      "signature": "0x355274ea"
    },
    {
      "constant": true,
      "inputs": [],
      "name": "weiRaised",
      "outputs": [
        {
          "name": "",
          "type": "uint256"
        }
      ],
      "payable": false,
      "stateMutability": "view",
      "type": "function",
      "signature": "0x4042b66f"
    },
    {
      "constant": true,
      "inputs": [
        {
          "name": "",
          "type": "address"
        }
      ],
      "name": "contributions",
      "outputs": [
        {
          "name": "",
          "type": "uint256"
        }
      ],
      "payable": false,
      "stateMutability": "view",
      "type": "function",
      "signature": "0x42e94c90"
    },
    {
      "constant": true,
      "inputs": [],
      "name": "capReached",
      "outputs": [
        {
          "name": "",
          "type": "bool"
        }
      ],
      "payable": false,
      "stateMutability": "view",
      "type": "function",
      "signature": "0x4f935945"
    },
    {
      "constant": true,
      "inputs": [],
      "name": "wallet",
      "outputs": [
        {
          "name": "",
          "type": "address"
        }
      ],
      "payable": false,
      "stateMutability": "view",
      "type": "function",
      "signature": "0x521eb273"
    },
    {
      "constant": true,
      "inputs": [],
      "name": "investorMinCap",
      "outputs": [
        {
          "name": "",
          "type": "uint256"
        }
      ],
      "payable": false,
      "stateMutability": "view",
      "type": "function",
      "signature": "0xb25d7f54"
    },
    {
      "constant": false,
      "inputs": [
        {
          "name": "_beneficiary",
          "type": "address"
        }
      ],
      "name": "buyTokens",
      "outputs": [],
      "payable": true,
      "stateMutability": "payable",
      "type": "function",
      "signature": "0xec8ac4d8"
    },
    {
      "constant": true,
      "inputs": [],
      "name": "investorHardCap",
      "outputs": [
        {
          "name": "",
          "type": "uint256"
        }
      ],
      "payable": false,
      "stateMutability": "view",
      "type": "function",
      "signature": "0xed5db874"
    },
    {
      "constant": true,
      "inputs": [],
      "name": "token",
      "outputs": [
        {
          "name": "",
          "type": "address"
        }
      ],
      "payable": false,
      "stateMutability": "view",
      "type": "function",
      "signature": "0xfc0c546a"
    },
    {
      "inputs": [
        {
          "name": "_rate",
          "type": "uint256"
        },
        {
          "name": "_wallet",
          "type": "address"
        },
        {
          "name": "_token",
          "type": "address"
        },
        {
          "name": "_cap",
          "type": "uint256"
        }
      ],
      "payable": false,
      "stateMutability": "nonpayable",
      "type": "constructor",
      "signature": "constructor"
    },
    {
      "payable": true,
      "stateMutability": "payable",
      "type": "fallback"
    },
    {
      "anonymous": false,
      "inputs": [
        {
          "indexed": true,
          "name": "purchaser",
          "type": "address"
        },
        {
          "indexed": true,
          "name": "beneficiary",
          "type": "address"
        },
        {
          "indexed": false,
          "name": "value",
          "type": "uint256"
        },
        {
          "indexed": false,
          "name": "amount",
          "type": "uint256"
        }
      ],
      "name": "TokenPurchase",
      "type": "event",
      "signature": "0x623b3804fa71d67900d064613da8f94b9617215ee90799290593e1745087ad18"
    }
  ],
  "bytecode": "0x6080604052674563918244f400006005556802b5e3af16b188000060065534801561002957600080fd5b50604051608080610984833981018060405281019080805190602001909291908051906020019092919080519060200190929190805190602001909291905050508084848460008311151561007d57600080fd5b600073ffffffffffffffffffffffffffffffffffffffff168273ffffffffffffffffffffffffffffffffffffffff16141515156100b957600080fd5b600073ffffffffffffffffffffffffffffffffffffffff168173ffffffffffffffffffffffffffffffffffffffff16141515156100f557600080fd5b8260028190555081600160006101000a81548173ffffffffffffffffffffffffffffffffffffffff021916908373ffffffffffffffffffffffffffffffffffffffff160217905550806000806101000a81548173ffffffffffffffffffffffffffffffffffffffff021916908373ffffffffffffffffffffffffffffffffffffffff16021790555050505060008111151561018f57600080fd5b8060048190555050505050506107da806101aa6000396000f3006080604052600436106100a4576000357c0100000000000000000000000000000000000000000000000000000000900463ffffffff1680632c4e722e146100af578063355274ea146100da5780634042b66f1461010557806342e94c90146101305780634f93594514610187578063521eb273146101b6578063b25d7f541461020d578063ec8ac4d814610238578063ed5db8741461026e578063fc0c546a14610299575b6100ad336102f0565b005b3480156100bb57600080fd5b506100c46103be565b6040518082815260200191505060405180910390f35b3480156100e657600080fd5b506100ef6103c4565b6040518082815260200191505060405180910390f35b34801561011157600080fd5b5061011a6103ca565b6040518082815260200191505060405180910390f35b34801561013c57600080fd5b50610171600480360381019080803573ffffffffffffffffffffffffffffffffffffffff1690602001909291905050506103d0565b6040518082815260200191505060405180910390f35b34801561019357600080fd5b5061019c6103e8565b604051808215151515815260200191505060405180910390f35b3480156101c257600080fd5b506101cb6103f7565b604051808273ffffffffffffffffffffffffffffffffffffffff1673ffffffffffffffffffffffffffffffffffffffff16815260200191505060405180910390f35b34801561021957600080fd5b5061022261041d565b6040518082815260200191505060405180910390f35b61026c600480360381019080803573ffffffffffffffffffffffffffffffffffffffff1690602001909291905050506102f0565b005b34801561027a57600080fd5b50610283610423565b6040518082815260200191505060405180910390f35b3480156102a557600080fd5b506102ae610429565b604051808273ffffffffffffffffffffffffffffffffffffffff1673ffffffffffffffffffffffffffffffffffffffff16815260200191505060405180910390f35b600080349150610300838361044e565b6103098261052a565b90506103208260035461054890919063ffffffff16565b6003819055506103308382610564565b8273ffffffffffffffffffffffffffffffffffffffff163373ffffffffffffffffffffffffffffffffffffffff167f623b3804fa71d67900d064613da8f94b9617215ee90799290593e1745087ad188484604051808381526020018281526020019250505060405180910390a36103a78383610572565b6103af610576565b6103b983836105e1565b505050565b60025481565b60045481565b60035481565b60076020528060005260406000206000915090505481565b60006004546003541015905090565b600160009054906101000a900473ffffffffffffffffffffffffffffffffffffffff1681565b60055481565b60065481565b6000809054906101000a900473ffffffffffffffffffffffffffffffffffffffff1681565b60008061045b84846105e5565b600760008573ffffffffffffffffffffffffffffffffffffffff1673ffffffffffffffffffffffffffffffffffffffff1681526020019081526020016000205491506000821415156104ac57600080fd5b6104bf838361054890919063ffffffff16565b905060055481101580156104d557506006548111155b15156104e057600080fd5b80600760008673ffffffffffffffffffffffffffffffffffffffff1673ffffffffffffffffffffffffffffffffffffffff1681526020019081526020016000208190555050505050565b60006105416002548361061890919063ffffffff16565b9050919050565b6000818301905082811015151561055b57fe5b80905092915050565b61056e8282610650565b5050565b5050565b600160009054906101000a900473ffffffffffffffffffffffffffffffffffffffff1673ffffffffffffffffffffffffffffffffffffffff166108fc349081150290604051600060405180830381858888f193505050501580156105de573d6000803e3d6000fd5b50565b5050565b6105ef828261075e565b6004546106078260035461054890919063ffffffff16565b1115151561061457600080fd5b5050565b60008083141561062b576000905061064a565b818302905081838281151561063c57fe5b0414151561064657fe5b8090505b92915050565b6000809054906101000a900473ffffffffffffffffffffffffffffffffffffffff1673ffffffffffffffffffffffffffffffffffffffff166340c10f1983836040518363ffffffff167c0100000000000000000000000000000000000000000000000000000000028152600401808373ffffffffffffffffffffffffffffffffffffffff1673ffffffffffffffffffffffffffffffffffffffff16815260200182815260200192505050602060405180830381600087803b15801561071457600080fd5b505af1158015610728573d6000803e3d6000fd5b505050506040513d602081101561073e57600080fd5b8101908080519060200190929190505050151561075a57600080fd5b5050565b600073ffffffffffffffffffffffffffffffffffffffff168273ffffffffffffffffffffffffffffffffffffffff161415151561079a57600080fd5b600081141515156107aa57600080fd5b50505600a165627a7a72305820cd8dbef59c54d3c881acce2a324a81c084539b4cc1f5412e8c9b4128334736750029",
  "source": "pragma solidity ^0.4.24;\n\n\nimport \"openzeppelin-solidity/contracts/crowdsale/Crowdsale.sol\";\nimport \"openzeppelin-solidity/contracts/crowdsale/emission/MintedCrowdsale.sol\";\nimport \"openzeppelin-solidity/contracts/crowdsale/validation/CappedCrowdsale.sol\";\n\ncontract ExampleTokenCrowdsale is Crowdsale, MintedCrowdsale, CappedCrowdsale{\n\n\t//minimum investor Contribution - 20000000000000000000\n\t//minimum investor Contribution - 50000000000000000000\n\tuint256 public investorMinCap =  5000000000000000000;\n\tuint256 public investorHardCap = 50000000000000000000;\n\n\tmapping(address => uint256) public contributions;\n\n\tconstructor(uint256 _rate,\n\t  address _wallet,\n\t  ERC20 _token,\n\t  uint256 _cap)\n\tCrowdsale(_rate, _wallet, _token)\n\tCappedCrowdsale(_cap)\n\tpublic{\n\t}\n\n\n  function _preValidatePurchase(\n    address _beneficiary,\n    uint256 _weiAmount\n  )\n    internal\n  {\n    super._preValidatePurchase(_beneficiary, _weiAmount);\n    uint256 _existingContribution = contributions[_beneficiary];\n    //Graduate Question : This check is added to see that the existing user has not already made a contribution \n\trequire(_existingContribution == 0);\n    uint256 _newContribution = _existingContribution.add(_weiAmount);\n    require(_newContribution >= investorMinCap && _newContribution <= investorHardCap);\n\tcontributions[_beneficiary] = _newContribution;     \n  }\n  \n}",
  "sourcePath": "F:/Courses/Blockchain/Git/CappedCrowdsale-SmartContract/CappedCrowdsale/contracts/ExampleTokenCrowdsale.sol",
  "compiler": {
    "name": "solc",
    "version": "0.4.24+commit.e67f0147.Emscripten.clang"
  },
  "schemaVersion": "3.0.2",
  "updatedAt": "2019-03-14T03:36:24.067Z",
  "devdoc": {
    "methods": {
      "buyTokens(address)": {
        "details": "low level token purchase ***DO NOT OVERRIDE***",
        "params": {
          "_beneficiary": "Address performing the token purchase"
        }
      },
      "capReached()": {
        "details": "Checks whether the cap has been reached.",
        "return": "Whether the cap was reached"
      }
    }
  },
  "userdoc": {
    "methods": {}
  }
}